:020000040800F2
:10000000D0070020290200088B140008C71300083D
:100010008914000833040008991500080000000046
:10002000000000000000000000000000DB140008D9
:1000300035040008000000008D140008DD140008DD
:10004000430200084302000843020008430200087C
:10005000430200084302000843020008430200086C
:10006000430200084302000843020008430200085C
:10007000430200084302000843020008430200084C
:10008000430200084302000843020008430200083C
:10009000430200084302000843020008430200082C
:1000A000430200084302000843020008430200081C
:1000B000430200084302000843020008430200080C
:1000C00043020008430200084302000843020008FC
:1000D00043020008430200084302000843020008EC
:1000E00043020008430200084302000843020008DC
:1000F00043020008430200084302000843020008CC
:1001000043020008430200084302000843020008BB
:1001100043020008430200084302000843020008AB
:10012000430200084302000843020008430200089B
:10013000430200084302000843020008430200088B
:10014000430200084302000843020008430200087B
:10015000430200084302000843020008430200086B
:10016000430200084302000843020008430200085B
:100170004302000843020008430200080000000098
:10018000430200084302000800F002F800F03CF8C7
:100190000AA090E8000C82448344AAF10107DA45E2
:1001A00001D100F031F8AFF2090EBAE80F0013F0F8
:1001B000010F18BFFB1A43F001031847C4160000D3
:1001C000E4160000103A24BF78C878C1FAD8520764
:1001D00024BF30C830C144BF04680C6070470000C1
:1001E0000023002400250026103A28BF78C1FBD840
:1001F000520728BF30C148BF0B6070471FB501F0E0
:1002000031FB1FBD10B510BD00F0CFF81146FFF750
:10021000F5FF01F0D3F900F0EDF803B4FFF7F2FFBA
:1002200003BC00F0F5F80000094880470948004782
:10023000FEE7FEE7FEE7FEE7FEE7FEE7FEE7FEE796
:10024000FEE7FEE704480549054A064B70470000F3
:100250007D15000889010008D0010020D00700208A
:10026000D0030020D003002053EA020C00F0698084
:100270002DE9F04B4FF00006002B1FBFB3FA83F5BA
:1002800003FA05F424FA05F65E4012BF1643B2FAEB
:1002900082F502FA05F4C5F120051EBF22FA05FC1D
:1002A00044EA0C04203556EA044C4FEA144418BFC3
:1002B000641C4FF000084FF00009904271EB030CF2
:1002C00039D3002919BFB1FA81F701FA07F6B0FA5C
:1002D00080F700FA07F6C7F120071EBF20FA07FCD7
:1002E00046EA0C062037B6FBF4FCA7EB0507103FE7
:1002F00007F01F0BCBF120060CFA0BFB2CFA06F6CD
:1003000044BFB3460026202FA4BF5E464FF0000B2B
:100310005BEA060C08BF4FF0010B19EB0B09ABFBB6
:10032000027C48EB0608C01B06FB02CC0BFB03CC8F
:1003300071EB0C01C1E70B46024641464846BDE859
:10034000F08B13B54FF000004FF00001AFF30080C9
:10035000BDE81C4070474FF0000200B513469446BC
:100360009646203922BFA0E80C50A0E80C50B1F10D
:100370002001BFF4F7AF090728BFA0E80C5048BF21
:100380000CC05DF804EB890028BF40F8042B08BFBF
:10039000704748BF20F8022B11F0804F18BF00F8BB
:1003A000012B7047704770477047754600F02CF876
:1003B000AE4605006946534620F00700854618B052
:1003C00020B5FFF73FFFBDE820404FF000064FF09B
:1003D00000074FF000084FF0000B21F00701AC467A
:1003E000ACE8C009ACE8C009ACE8C009ACE8C00999
:1003F0008D46704710B50446AFF300802046BDE837
:100400001040FFF70ABF0000004870476C01002051
:1004100001491820ABBEFEE7260002007047885451
:100420001144000A4870704788541144000A48700B
:100430007047FEE7704772B6FEE7F0B590F82050BF
:100440000468A468012D05D0022D03D0416A41F44F
:1004500080215DE014F0406F01D1E50055D5C4F373
:100460000164022C03D9416A41F4000150E00125E6
:10047000A5401D608D684FF4C0739DB1CE683543B3
:100480004E6845EAC605066803EB0417F5514FF4BC
:10049000C275076805EB04150E697E51097D0129B7
:1004A00005D009E00E88CD6845EA4655EBE70168BE
:1004B0004E5946F480764E511179D579567941EAF4
:1004C000056195792D0445EA062529434FF4C67642
:1004D000056806EB0416A9511178D57841EA056143
:1004E000957852782D0445EA022211434FF4C475E1
:1004F000026805EB04155151006803EB04114258E2
:1005000042F0010242500020F0BD416A41F4001166
:1005100041620120F0BD000010B590F82020012AB2
:1005200007D0022A05D0416A41F4802141620120AE
:1005300010BD3B48D0F8002242F00102C0F8002272
:10054000D0F8002222F47C52C0F80022D0F8002219
:100550004B6A42EA0322C0F800220A7D02F01F0320
:1005600001229A40D0F81C329343C0F81C32CB6968
:10057000B3B9D0F80C329343C0F80C328C894B6875
:1005800064F31F434C6900EBC404C4F840320C8987
:100590000B6864F31F434C6900EBC404C4F8443295
:1005A000CB69012B16D1D0F80C321343C0F80C32B2
:1005B0000C884B6864F31F434C6900EBC404C4F817
:1005C00040320C89CB6864F31F434C6900EBC404D0
:1005D000C4F844328B69002BD0F804320ED0134398
:1005E000C0F804320B69002BD0F8143208D0134342
:1005F000C0F81432096A012904D008E09343EFE7F8
:100600009343F5E7D0F81C121143C0F81C12D0F840
:10061000001221F00101C0F80012002010BD0000FE
:100620000064004070B5040003D094F8200010B1BD
:1006300004E0012070BD204600F082F820680168C7
:1006400021F00201016000F0D7F90546052604E01B
:1006500000F0D2F9401B0A2811D8206840688007B2
:10066000F6D42068016841F00101016000F0C4F98E
:1006700005460BE000F0C0F9401B0A2806D9606A65
:1006800040F40030606284F82060D2E7206840685F
:10069000C007EFD0207E0128206801683DD021F0FE
:1006A00080010160607E01282068016838D021F057
:1006B00040010160A07E01282068016833D021F04C
:1006C00020010160E07E0128206801682ED041F001
:1006D00010010160207F01282068016829D021F0E5
:1006E00008010160607F01282068016824D021F0A2
:1006F00004010160D4E902010843D4E90412114362
:1007000008436168491E08432168C861002060628F
:10071000012084F82000002070BD41F08001C0E776
:1007200041F04001C5E741F02001CAE721F0100186
:10073000CFE741F00801D4E741F00401D9E7000018
:1007400010B586B0044614216846FFF704FE14492C
:100750002068884221D113480021026842F00072CB
:100760000260006800F0007005900E4810380268C2
:1007700042F002020260006800F0020005904FF4AF
:10078000407000900220CDE9010103200390092070
:1007900004906946044800F047F806B010BD000018
:1007A00000640040403802400004024070B5044636
:1007B00090F82000012804D0606A40F400206062B4
:1007C00018E0022084F820002068016821F001016F
:1007D000016000F011F905460EE000BF00F00CF9D1
:1007E000401B0A2808D9606A40F400306062052086
:1007F00084F82000012070BD20684068C007EDD15A
:10080000606270BD70B5044600F0F6F80546601CE5
:1008100002D004480078044400F0EEF8401BA042E7
:10082000FAD370BD5C0000202DE9F84F00224FF094
:10083000010803254FF00F0E0B6808FA02F423405D
:10084000A3426ED14E68012E05D0022E03D0112E88
:1008500001D0122E12D186684FEA420C05FA0CF72D
:10086000BE43CF6807FA0CF7374387604668A64354
:100870000C79C4F30014944034434460C6685700B4
:1008800005FA07FC8C6826EA0C06BC403443C460B9
:100890004C68022C01D0122C13D1D40800EB840434
:1008A000A346D4F8209054074FEAD46A0EFA0AF609
:1008B00029EA06090E6906FA0AF646EA0906CBF89D
:1008C000206006680C7926EA0C0604F00304BC409C
:1008D000344304604C68E40065D5364C266846F421
:1008E00080462660246822F0030604F480440094C5
:1008F000314C3444A446D4F808489607370F0EFA12
:1009000007F6B4432D4EB04201D1002624E02C4E10
:10091000B04201D101261FE02A4EB04202D1022688
:100920001AE040E0284EB04201D1032614E0274EE1
:10093000B04201D104260FE0254EB04201D1052678
:100940000AE0244EB04201D1062605E0224EB04214
:1009500001D1072600E00826BE402643CCF80868EF
:100960001E4E34684F689C43FF0300D51C4334601F
:100970001A4C241D26684F689E43BF0300D51E43B2
:100980002660164E083634684F689C43FF0200D537
:100990001C433460114E0C3634684F689C43BF02D0
:1009A00000D51C433460521C102AFFF445AFBDE84B
:1009B000F88F00004438024000300140000002403F
:1009C0000004024000080240000C024000100240F7
:1009D0000014024000180240001C0240003C01408C
:1009E000426931EA020200D10904816170470AB10B
:1009F000816170470904FBE7014880687047000087
:100A00005C000020024881680278114481607047D0
:100A10005C0000200B4810B5016841F400710160D2
:100A2000016841F480610160016841F480710160F6
:100A3000032000F061F80F2000F006F800F024F821
:100A4000002010BD003C024070B50D4D04464FF42F
:100A50007A712878B1FBF0F00A490968B1FBF0F02F
:100A600000F09DFC48B9102C07D200222146501EF0
:100A700000F022F800206C6070BD012070BD000005
:100A80005C000020680000200A4808B5016841F4B5
:100A900080410160006800F4804000900548001F1C
:100AA000016841F080510160006800F080500090C2
:100AB00008BD000044380240F0B40E4B1B680C46E1
:100AC000C3F30223C3F10705042D00D90425191D22
:100AD000072901D2002300E0DB1E012606FA05F1FA
:100AE000491E214099409E40761E16403143F0BC7D
:100AF00000F053BD0CED00E0064900F00702086865
:100B00004FF6FF03184040EA0220034A10430860F2
:100B1000704700000CED00E00000FA052DE9F843F5
:100B2000054600684FF00109C1074FF0000601D1EA
:100B3000400727D5DFF80C81C8F86860FFF75CFF35
:100B40000746414C05E000BFFFF756FFC01B0228D7
:100B500057D820680001F7D468688101287A41EAF3
:100B60000070394984310860C8F86890FFF744FF85
:100B7000074604E0FFF740FFC01B022841D8206869
:100B80000001F7D52878800752D52F4840300168FA
:100B900041F08051016000682C4C00F080500090C2
:100BA000206840F480702060FFF726FF074604E0CD
:100BB000FFF722FFC01B022823D82068C005F7D505
:100BC000214C7034206810F4407020D0A98901F4C1
:100BD000407181421BD020681D4920F44070C1F84B
:100BE00000900E6020602068C00710D0FFF704FF5F
:100BF000064641F2883707E0FFF7FEFE801BB84249
:100C000002D90320BDE8F88320688007F4D5E9689D
:100C10000D48C1F301220830032A0BD0016821F4EA
:100C2000F81101602068A989C1F30B010843206015
:100C30000020E7E70268074B22F4F81219400A4344
:100C40000260EFE7000047420038024000700040B9
:100C5000400E4742FFFCFF0F2DE9F0470E4605000E
:100C600065D0DFF81481D8F80000F7B200F00F006B
:100C7000B04207D288F80070D8F8000000F00F00EA
:100C8000B04254D128683D4C810712D5400703D5A6
:100C9000206840F4E05020602878000703D52068E1
:100CA00040F4604020602068A96820F0F00008430C
:100CB00020602878C0072DD030496868083901289D
:100CC00012D0022813D0032811D0096889070029FF
:100CD0002DDA216821F0030101432160FFF78CFE2A
:100CE000814641F2883A0EE009688903EFE7096816
:100CF0008901ECE7FFF780FEA0EB0901514502D91D
:100D00000320BDE8F0872068696800F00C00B0EBB4
:100D1000810FEFD1D8F80010404601F00F01B14229
:100D200007D90770006800F00F00B04201D0012021
:100D3000E7E72878400705D52068E96820F4E05007
:100D4000084320602878000706D52068296920F428
:100D5000604040EAC100206000F018F82168084AAD
:100D6000C1F30311515CC840064908600648006899
:100D7000FFF76AFE0020C4E7003C0240083802404A
:100D80006E1800086800002060000020154810B5AB
:100D9000006810F00C02144813D04110042A0FD040
:100DA000082A0ED10F4C241F2268236802F03F024C
:100DB0005B0207D52068C0F38810A0FB010106E0A4
:100DC000084610BD2168C1F38811A1FB0001002372
:100DD000FFF74AFA2168C1F30141491C4900B0FB01
:100DE000F1F010BD083802400024F4002DE9F84F5E
:100DF000040076D02078DFF838A3CE4DC00749D064
:100E0000DAF800105046C1F38101012908D00068CA
:100E1000C0F3810002280AD1281D0068400206D5CF
:100E20002868800336D560680028E2D032E0606828
:100E3000B0F5803F10D0B0F5A02F286810D020F476
:100E400080302860286820F4802028606068A0B185
:100E5000FFF7D2FD06460CE0286840F48030F4E746
:100E600040F480202860F7E7FFF7C6FD801B642868
:100E700073D828688003F7D50CE0FFF7BDFD064660
:100E800005E000BFFFF7B8FD801B6428F0D8286894
:100E90008003F7D42078DFF8A08280074FF00009A4
:100EA0003ED5DAF80010504611F00C0F09D000685A
:100EB000C0F3810002280BD19D48001F006840024A
:100EC00006D42868800715D5E068012809D111E00B
:100ED000E068B8B10120C8F80000FFF78DFD0646B4
:100EE00005E020E1FFF788FD801B0228C0D82868B4
:100EF0008007F7D52868216920F0F80040EAC10092
:100F000028600DE0C8F80090FFF776FD064604E083
:100F1000FFF772FD801B02281FD828688007F7D4CE
:100F20002078000722D5824E844861696C3671B101
:100F300001210160FFF760FD074604E0FFF75CFD5B
:100F4000C01B022809D830688007F7D50EE0C0F82A
:100F50000090FFF751FD074605E082E0FFF74CFDEA
:100F6000C01B02287DD830688007F7D4207840075E
:100F700068D5DFF8BCB100270BF1380BDBF80000B7
:100F8000C0000BD4DBF8001041F08051CBF800100A
:100F9000DBF80000012700F080500090684E3068B8
:100FA000C00510D4306840F480703060FFF724FD35
:100FB000009005E0FFF720FD0099401A022850D864
:100FC0003068C005F6D55A4EA068683601280FD0A3
:100FD0000528306810D020F001003060306820F023
:100FE00004003060A068B8B1FFF706FD00900FE084
:100FF000306840F00100F4E740F004003060F7E7AB
:10100000FFF7FAFC0099411A41F28830814266D814
:1010100030688007F4D50EE0FFF7EEFC009007E0A3
:10102000FFF7EAFC0099411A41F28830814256D814
:1010300030688007F4D42FB1DBF8001021F0805124
:10104000CBF80010A069D0B3DAF800205146C2F303
:101050008102022A4AD00228484607D0C8F8600018
:1010600000E03CE0FFF7C8FC04463BE04746C8F818
:101070006000FFF7C1FC064605E000BFFFF7BCFCBF
:10108000801B02282BD828688001F7D4D4E90701F7
:101090000843A16A2B4A490802EB0141626A41EA0E
:1010A0008211084394F82C1040EA01612048001F87
:1010B000016001203866FFF79FFC044605E034E03C
:1010C000FFF79AFC001B022809D828688001F7D591
:1010D0002BE000BFFFF790FC001B022802D9032081
:1010E000BDE8F88F28688001F4D41EE00128F7D00D
:1010F0000868E26900F48001914214D1226A00F08C
:101100003F0191420FD147F6C071626A014091429E
:1011100009D1A26A00F44031914204D1E16A00F0A1
:101120007060884201D00120DAE70020D8E7000093
:10113000083802400038024000004742800E474213
:10114000007000400000FFFF70B50446007F0128DA
:1011500019D001252577022060772168CA204862CE
:10116000216853204862204600F09AF90200226864
:101170004FF000004FF0FF0107D05162042161776A
:101180002077012070BD022070BD936843F01003EA
:1011900093602268D36823F08003D3602268516291
:1011A00065772077002070BD10B500680B46416858
:1011B0000D480140080CD870C1F304245C7001F0A4
:1011C0003F049C70C1F34231197052B900F05FF9CD
:1011D000D870587800F05BF95870987800F057F99B
:1011E0009870002010BD00003FFFFF0010B50B46B7
:1011F0000168896A596001680969C1F30E01996043
:10120000006801680E480140C1F305401870C1F341
:1012100006245C7001F07F049C70402404EA1141B4
:10122000D97052B900F033F91870587800F02FF9DE
:101230005870987800F02BF99870002010BD0000CD
:101240007F7F7F0070B5040002D0607F10B106E0A0
:10125000012070BD00202077204600F049F80220D0
:1012600060772168CA20486221685320486220467E
:1012700000F016F9FF25042618BB206881681B4A78
:10128000114081602168886862681043D4E90423B2
:101290001A43104388602168E0680861206801698A
:1012A000228941EA024101612068C16821F0800180
:1012B000C16020688068800607D4204600F054F89A
:1012C00018B1206845626677C2E72068016C21F496
:1012D000802101642068016CA269114301642068C7
:1012E000456201206077002070BD0000BFFF8FFFC6
:1012F00030B58BB0054614216846FFF72CF8002462
:10130000059406940794089413492868884220D1CC
:10131000401502250890059505A8FFF7FFFB08B1C9
:10132000FFF789F80D49012008600D48016841F078
:10133000020101600068694600F0020009904FF464
:1013400000400090CDE90154039406480494FFF74F
:101350006BFA0BB030BD0000002800403C0E474245
:10136000303802400004024070B504460068C1688D
:1013700021F0A001C160FFF73FFB05464FF47A76EC
:1013800007E000BFFFF738FB401BB04201D9032044
:1013900070BD2068C0688006F4D5002070BD10B50F
:1013A000401EB0F1807F01D3012010BD4FF0E0243A
:1013B00060610F21601700F0F0F80020A0610720A5
:1013C0002061002010BDFEE70E4810B50C490160F9
:1013D0003021416000214FF440328160C0E90312A6
:1013E0004FF480124261017641768176C1760177B1
:1013F0004177FFF717F9002801D072B6FEE710BD5C
:1014000000640040E400002070B586B014216846F6
:10141000FEF7A1FF1A480024016841F08001016035
:10142000016801F080010591016841F0020101604D
:10143000016801F002010591016841F008010160B5
:10144000016801F008010591016841F001010160A6
:1014500000680C4E00F001004FF47045059000222A
:1014600029463046FFF7C3FA01200095CDE9010473
:10147000694630460394FFF7D7F906B070BD000007
:1014800030380240000C0240FEE7FEE770470109D9
:1014900001EB810100F00F0000EB4100C0B270478A
:1014A00070B504460068C168490614D44FF0FF3196
:1014B000C160FFF7A1FA05464FF47A7607E000BF56
:1014C000FFF79AFA401BB04201D9032070BD206893
:1014D000C0684006F4D5002070BD7047FFF792BA8F
:1014E00030B593B030216846FEF735FF14210CA8C3
:1014F000FEF731FF1F480025016841F0805101606F
:10150000006800F0805011901B48016841F4804150
:1015100001600068022400F48040119009200090CE
:101520004FF4803001900120CDE90504800507903B
:10153000082008904FF4A870CDE9090404200B900E
:101540006846FFF753FC08B172B6FEE70CA90F20FE
:1015500081E831004FF4A0500F904FF4805010906C
:1015600005210CA8FFF778FB002801D072B6FEE732
:1015700013B030BD4038024000700040054801689B
:1015800041F47001016003494FF000608039086048
:101590007047000088ED00E0FEE70907090E00280B
:1015A00004DB00F1E02080F80014704700F00F0029
:1015B00000F1E02080F8141D7047000088B0FFF7AC
:1015C00029FAFFF78DFFFFF71FFFFFF7FDFEA24887
:1015D000A0490024C0E900147F218160FF21C0E9F7
:1015E000031444618461FFF72DFE08B172B6FEE773
:1015F0009948FFF7A9FD08B172B6FEE79648974DE6
:101600002030082184600161298BC460016018309A
:101610000461698B4901C0E9001484600121C16142
:10162000C460016201466038FEF776FF8A482838B8
:10163000FFF7BCF805F1280BA246A946864999F8A0
:101640000100A0394C460870834899F80210A03870
:10165000824E417099F80310817099F80410C1709E
:1016600099F80510017199F8061041717A492078AE
:10167000A03900238871072055462E36C4F8200073
:10168000754936F91300A039226AFEF7C8FE206AB0
:101690005B1C801C2062102BF2DB704E00234E3648
:1016A0006D4936F91300A039226AFEF7B8FE206AA8
:1016B0005B1C801C2062062BF2DB67490246A039C6
:1016C000B4F91C00FEF7ABFE226A6349921C226249
:1016D000A0392089FEF7A8FE226A5F49921C226287
:1016E000A0396089FEF7A0FE226A5B49921C226243
:1016F000A039A089FEF798FE226A5749921C2262FF
:10170000A039E08BFEF790FE226A5349921C2262B8
:10171000A039E089FEF788FE226A4F49921C2262B6
:10172000A039208AFEF780FE226A4B49921C226271
:10173000A039608AFEF778FE226A4749921C22622D
:10174000A039A08AFEF770FE226A4349921C2262E9
:10175000A039E08AFEF768FE206A0022801C206221
:1017600069463D48FFF742FD002205A93A48FFF7C8
:101770001BFD9DF817108BF800109DF815108BF8C5
:1017800001109DF816108BF802109DF800108BF8D0
:1017900003109DF801108BF804109DF802108BF8CF
:1017A0000510216A584600222B4E835CA03E521C35
:1017B0007354491C062AF7DB14202162FFF722F834
:1017C00006950795002406AD5FF0000000EBC4010C
:1017D000715C2954401C0828F8DB1F491F4B20313D
:1017E000243306AAA1F14800FEF727FE0120FFF7E7
:1017F00009F8641C0F2CE7DB6420FFF703F8184D91
:101800004FF4805421462846FFF7EAF86600314637
:101810002846FFF7E5F8A70039462846FFF7E0F825
:101820004FF4004841462846FFF7DAF86420FEF7F7
:10183000E9FF21462846FFF7D3F831462846FFF74F
:10184000CFF839462846FFF7CBF841462846FFF740
:10185000C7F8F3E6002800400C010020000000203B
:10186000000C02404FF04070E1EE100A704700009B
:101870000000000000000102030406070809000040
:10188000A0180008000000206C000000C40100083F
:101890000C1900086C00002064070000E00100083B
:1018A00096000000000000000000000000007B0027
:1018B0003C002300B002D2012301240100000000FB
:1018C0000000000000000000000000000000040113
:1018D00064000C0000000000000000003300000065
:1018E00000000000000000000000000000001400E4
:1018F0000000000050000000000000000100000097
:0C19000010000000000000000024F400B3
:040000050800018965
:00000001FF
